{
  "_format": "hh-sol-artifact-1",
  "contractName": "GovernanceToken",
  "sourceName": "contracts/GovernanceToken.sol",
  "abi": [
    {
      "inputs": [
        {
          "internalType": "string",
          "name": "_tokenName",
          "type": "string"
        },
        {
          "internalType": "string",
          "name": "_tokenSymbol",
          "type": "string"
        },
        {
          "internalType": "string",
          "name": "_version",
          "type": "string"
        }
      ],
      "stateMutability": "nonpayable",
      "type": "constructor"
    },
    {
      "anonymous": false,
      "inputs": [
        {
          "indexed": true,
          "internalType": "address",
          "name": "owner",
          "type": "address"
        },
        {
          "indexed": true,
          "internalType": "address",
          "name": "approved",
          "type": "address"
        },
        {
          "indexed": true,
          "internalType": "uint256",
          "name": "tokenId",
          "type": "uint256"
        }
      ],
      "name": "Approval",
      "type": "event"
    },
    {
      "anonymous": false,
      "inputs": [
        {
          "indexed": true,
          "internalType": "address",
          "name": "owner",
          "type": "address"
        },
        {
          "indexed": true,
          "internalType": "address",
          "name": "operator",
          "type": "address"
        },
        {
          "indexed": false,
          "internalType": "bool",
          "name": "approved",
          "type": "bool"
        }
      ],
      "name": "ApprovalForAll",
      "type": "event"
    },
    {
      "anonymous": false,
      "inputs": [
        {
          "indexed": true,
          "internalType": "address",
          "name": "delegator",
          "type": "address"
        },
        {
          "indexed": true,
          "internalType": "address",
          "name": "fromDelegate",
          "type": "address"
        },
        {
          "indexed": true,
          "internalType": "address",
          "name": "toDelegate",
          "type": "address"
        }
      ],
      "name": "DelegateChanged",
      "type": "event"
    },
    {
      "anonymous": false,
      "inputs": [
        {
          "indexed": true,
          "internalType": "address",
          "name": "delegate",
          "type": "address"
        },
        {
          "indexed": false,
          "internalType": "uint256",
          "name": "previousBalance",
          "type": "uint256"
        },
        {
          "indexed": false,
          "internalType": "uint256",
          "name": "newBalance",
          "type": "uint256"
        }
      ],
      "name": "DelegateVotesChanged",
      "type": "event"
    },
    {
      "anonymous": false,
      "inputs": [
        {
          "indexed": true,
          "internalType": "address",
          "name": "from",
          "type": "address"
        },
        {
          "indexed": true,
          "internalType": "address",
          "name": "to",
          "type": "address"
        },
        {
          "indexed": true,
          "internalType": "uint256",
          "name": "tokenId",
          "type": "uint256"
        }
      ],
      "name": "Transfer",
      "type": "event"
    },
    {
      "inputs": [],
      "name": "DOMAIN_SEPARATOR",
      "outputs": [
        {
          "internalType": "bytes32",
          "name": "",
          "type": "bytes32"
        }
      ],
      "stateMutability": "view",
      "type": "function"
    },
    {
      "inputs": [
        {
          "internalType": "address",
          "name": "to",
          "type": "address"
        },
        {
          "internalType": "uint256",
          "name": "tokenId",
          "type": "uint256"
        }
      ],
      "name": "approve",
      "outputs": [],
      "stateMutability": "nonpayable",
      "type": "function"
    },
    {
      "inputs": [
        {
          "internalType": "address",
          "name": "owner",
          "type": "address"
        }
      ],
      "name": "balanceOf",
      "outputs": [
        {
          "internalType": "uint256",
          "name": "",
          "type": "uint256"
        }
      ],
      "stateMutability": "view",
      "type": "function"
    },
    {
      "inputs": [
        {
          "internalType": "address",
          "name": "delegatee",
          "type": "address"
        }
      ],
      "name": "delegate",
      "outputs": [],
      "stateMutability": "nonpayable",
      "type": "function"
    },
    {
      "inputs": [
        {
          "internalType": "address",
          "name": "delegatee",
          "type": "address"
        },
        {
          "internalType": "uint256",
          "name": "nonce",
          "type": "uint256"
        },
        {
          "internalType": "uint256",
          "name": "expiry",
          "type": "uint256"
        },
        {
          "internalType": "uint8",
          "name": "v",
          "type": "uint8"
        },
        {
          "internalType": "bytes32",
          "name": "r",
          "type": "bytes32"
        },
        {
          "internalType": "bytes32",
          "name": "s",
          "type": "bytes32"
        }
      ],
      "name": "delegateBySig",
      "outputs": [],
      "stateMutability": "nonpayable",
      "type": "function"
    },
    {
      "inputs": [
        {
          "internalType": "address",
          "name": "account",
          "type": "address"
        }
      ],
      "name": "delegates",
      "outputs": [
        {
          "internalType": "address",
          "name": "",
          "type": "address"
        }
      ],
      "stateMutability": "view",
      "type": "function"
    },
    {
      "inputs": [
        {
          "internalType": "uint256",
          "name": "tokenId",
          "type": "uint256"
        }
      ],
      "name": "getApproved",
      "outputs": [
        {
          "internalType": "address",
          "name": "",
          "type": "address"
        }
      ],
      "stateMutability": "view",
      "type": "function"
    },
    {
      "inputs": [
        {
          "internalType": "uint256",
          "name": "blockNumber",
          "type": "uint256"
        }
      ],
      "name": "getPastTotalSupply",
      "outputs": [
        {
          "internalType": "uint256",
          "name": "",
          "type": "uint256"
        }
      ],
      "stateMutability": "view",
      "type": "function"
    },
    {
      "inputs": [
        {
          "internalType": "address",
          "name": "account",
          "type": "address"
        },
        {
          "internalType": "uint256",
          "name": "blockNumber",
          "type": "uint256"
        }
      ],
      "name": "getPastVotes",
      "outputs": [
        {
          "internalType": "uint256",
          "name": "",
          "type": "uint256"
        }
      ],
      "stateMutability": "view",
      "type": "function"
    },
    {
      "inputs": [
        {
          "internalType": "address",
          "name": "account",
          "type": "address"
        }
      ],
      "name": "getVotes",
      "outputs": [
        {
          "internalType": "uint256",
          "name": "",
          "type": "uint256"
        }
      ],
      "stateMutability": "view",
      "type": "function"
    },
    {
      "inputs": [
        {
          "internalType": "address",
          "name": "account",
          "type": "address"
        }
      ],
      "name": "getVotingUnits",
      "outputs": [
        {
          "internalType": "uint256",
          "name": "",
          "type": "uint256"
        }
      ],
      "stateMutability": "view",
      "type": "function"
    },
    {
      "inputs": [
        {
          "internalType": "address",
          "name": "owner",
          "type": "address"
        },
        {
          "internalType": "address",
          "name": "operator",
          "type": "address"
        }
      ],
      "name": "isApprovedForAll",
      "outputs": [
        {
          "internalType": "bool",
          "name": "",
          "type": "bool"
        }
      ],
      "stateMutability": "view",
      "type": "function"
    },
    {
      "inputs": [
        {
          "internalType": "address",
          "name": "_to",
          "type": "address"
        },
        {
          "internalType": "uint256",
          "name": "_tokenId",
          "type": "uint256"
        }
      ],
      "name": "mintNFT",
      "outputs": [],
      "stateMutability": "nonpayable",
      "type": "function"
    },
    {
      "inputs": [],
      "name": "name",
      "outputs": [
        {
          "internalType": "string",
          "name": "",
          "type": "string"
        }
      ],
      "stateMutability": "view",
      "type": "function"
    },
    {
      "inputs": [
        {
          "internalType": "address",
          "name": "owner",
          "type": "address"
        }
      ],
      "name": "nonces",
      "outputs": [
        {
          "internalType": "uint256",
          "name": "",
          "type": "uint256"
        }
      ],
      "stateMutability": "view",
      "type": "function"
    },
    {
      "inputs": [
        {
          "internalType": "uint256",
          "name": "tokenId",
          "type": "uint256"
        }
      ],
      "name": "ownerOf",
      "outputs": [
        {
          "internalType": "address",
          "name": "",
          "type": "address"
        }
      ],
      "stateMutability": "view",
      "type": "function"
    },
    {
      "inputs": [
        {
          "internalType": "address",
          "name": "from",
          "type": "address"
        },
        {
          "internalType": "address",
          "name": "to",
          "type": "address"
        },
        {
          "internalType": "uint256",
          "name": "tokenId",
          "type": "uint256"
        }
      ],
      "name": "safeTransferFrom",
      "outputs": [],
      "stateMutability": "nonpayable",
      "type": "function"
    },
    {
      "inputs": [
        {
          "internalType": "address",
          "name": "from",
          "type": "address"
        },
        {
          "internalType": "address",
          "name": "to",
          "type": "address"
        },
        {
          "internalType": "uint256",
          "name": "tokenId",
          "type": "uint256"
        },
        {
          "internalType": "bytes",
          "name": "data",
          "type": "bytes"
        }
      ],
      "name": "safeTransferFrom",
      "outputs": [],
      "stateMutability": "nonpayable",
      "type": "function"
    },
    {
      "inputs": [
        {
          "internalType": "address",
          "name": "operator",
          "type": "address"
        },
        {
          "internalType": "bool",
          "name": "approved",
          "type": "bool"
        }
      ],
      "name": "setApprovalForAll",
      "outputs": [],
      "stateMutability": "nonpayable",
      "type": "function"
    },
    {
      "inputs": [
        {
          "internalType": "bytes4",
          "name": "interfaceId",
          "type": "bytes4"
        }
      ],
      "name": "supportsInterface",
      "outputs": [
        {
          "internalType": "bool",
          "name": "",
          "type": "bool"
        }
      ],
      "stateMutability": "view",
      "type": "function"
    },
    {
      "inputs": [],
      "name": "symbol",
      "outputs": [
        {
          "internalType": "string",
          "name": "",
          "type": "string"
        }
      ],
      "stateMutability": "view",
      "type": "function"
    },
    {
      "inputs": [
        {
          "internalType": "uint256",
          "name": "tokenId",
          "type": "uint256"
        }
      ],
      "name": "tokenURI",
      "outputs": [
        {
          "internalType": "string",
          "name": "",
          "type": "string"
        }
      ],
      "stateMutability": "view",
      "type": "function"
    },
    {
      "inputs": [
        {
          "internalType": "address",
          "name": "from",
          "type": "address"
        },
        {
          "internalType": "address",
          "name": "to",
          "type": "address"
        },
        {
          "internalType": "uint256",
          "name": "tokenId",
          "type": "uint256"
        }
      ],
      "name": "transferFrom",
      "outputs": [],
      "stateMutability": "nonpayable",
      "type": "function"
    }
  ],
  "bytecode": "0x6101406040523480156200001257600080fd5b5060405162002858380380620028588339810160408190526200003591620001b9565b828181846000620000478382620002d9565b506001620000568282620002d9565b5050825160208085019190912083518483012060e08290526101008190524660a0818152604080517f8b73c3c69bb8fe3d512ecc4cf759cc79239f7b179b0ffacaa9a75d522b39400f81880181905281830187905260608201869052608082019490945230818401528151808203909301835260c0019052805194019390932091935091906080523060c0526101205250620003a595505050505050565b634e487b7160e01b600052604160045260246000fd5b600082601f8301126200011c57600080fd5b81516001600160401b0380821115620001395762000139620000f4565b604051601f8301601f19908116603f01168101908282118183101715620001645762000164620000f4565b816040528381526020925086838588010111156200018157600080fd5b600091505b83821015620001a5578582018301518183018401529082019062000186565b600093810190920192909252949350505050565b600080600060608486031215620001cf57600080fd5b83516001600160401b0380821115620001e757600080fd5b620001f5878388016200010a565b945060208601519150808211156200020c57600080fd5b6200021a878388016200010a565b935060408601519150808211156200023157600080fd5b5062000240868287016200010a565b9150509250925092565b600181811c908216806200025f57607f821691505b6020821081036200028057634e487b7160e01b600052602260045260246000fd5b50919050565b601f821115620002d457600081815260208120601f850160051c81016020861015620002af5750805b601f850160051c820191505b81811015620002d057828155600101620002bb565b5050505b505050565b81516001600160401b03811115620002f557620002f5620000f4565b6200030d816200030684546200024a565b8462000286565b602080601f8311600181146200034557600084156200032c5750858301515b600019600386901b1c1916600185901b178555620002d0565b600085815260208120601f198616915b82811015620003765788860151825594840194600190910190840162000355565b5085821015620003955787850151600019600388901b60f8161c191681555b5050505050600190811b01905550565b60805160a05160c05160e0516101005161012051612463620003f56000396000610d2a01526000610d7901526000610d5401526000610cad01526000610cd701526000610d0101526124636000f3fe608060405234801561001057600080fd5b506004361061014d5760003560e01c80636352211e116100c3578063a22cb4651161007c578063a22cb465146102d7578063abd050a6146102ea578063b88d4fde146102fd578063c3cda52014610310578063c87b56dd14610323578063e985e9c51461033657600080fd5b80636352211e1461027057806370a08231146102835780637ecebe00146102965780638e539e8c146102a957806395d89b41146102bc5780639ab24eb0146102c457600080fd5b80633644e515116101155780633644e515146101e25780633a46b1a8146101f85780633c168eab1461020b57806342842e0e1461021e578063587cde1e146102315780635c19a95c1461025d57600080fd5b806301ffc9a71461015257806306fdde031461017a578063081812fc1461018f578063095ea7b3146101ba57806323b872dd146101cf575b600080fd5b610165610160366004611f0b565b610372565b60405190151581526020015b60405180910390f35b6101826103c4565b6040516101719190611f78565b6101a261019d366004611f8b565b610456565b6040516001600160a01b039091168152602001610171565b6101cd6101c8366004611fc0565b61047d565b005b6101cd6101dd366004611fea565b610597565b6101ea6105c8565b604051908152602001610171565b6101ea610206366004611fc0565b6105d7565b6101cd610219366004611fc0565b610600565b6101cd61022c366004611fea565b61060e565b6101a261023f366004612026565b6001600160a01b039081166000908152600660205260409020541690565b6101cd61026b366004612026565b610629565b6101a261027e366004611f8b565b610634565b6101ea610291366004612026565b610694565b6101ea6102a4366004612026565b61071a565b6101ea6102b7366004611f8b565b610738565b610182610794565b6101ea6102d2366004612026565b6107a3565b6101cd6102e5366004612041565b6107d3565b6101ea6102f8366004612026565b6107de565b6101cd61030b366004612093565b6107e9565b6101cd61031e36600461216f565b610821565b610182610331366004611f8b565b61094e565b6101656103443660046121cf565b6001600160a01b03918216600090815260056020908152604080832093909416825291909152205460ff1690565b60006001600160e01b031982166380ac58cd60e01b14806103a357506001600160e01b03198216635b5e139f60e01b145b806103be57506301ffc9a760e01b6001600160e01b03198316145b92915050565b6060600080546103d390612202565b80601f01602080910402602001604051908101604052809291908181526020018280546103ff90612202565b801561044c5780601f106104215761010080835404028352916020019161044c565b820191906000526020600020905b81548152906001019060200180831161042f57829003601f168201915b5050505050905090565b6000610461826109d8565b506000908152600460205260409020546001600160a01b031690565b600061048882610634565b9050806001600160a01b0316836001600160a01b0316036104fa5760405162461bcd60e51b815260206004820152602160248201527f4552433732313a20617070726f76616c20746f2063757272656e74206f776e656044820152603960f91b60648201526084015b60405180910390fd5b336001600160a01b038216148061051657506105168133610344565b6105885760405162461bcd60e51b815260206004820152603d60248201527f4552433732313a20617070726f76652063616c6c6572206973206e6f7420746f60448201527f6b656e206f776e6572206f7220617070726f76656420666f7220616c6c00000060648201526084016104f1565b6105928383610a3a565b505050565b6105a13382610aa8565b6105bd5760405162461bcd60e51b81526004016104f190612236565b610592838383610b27565b60006105d2610ca0565b905090565b6001600160a01b03821660009081526007602052604081206105f99083610dc7565b9392505050565b61060a8282610ee3565b5050565b610592838383604051806020016040528060008152506107e9565b3361060a8183610efd565b6000818152600260205260408120546001600160a01b0316806103be5760405162461bcd60e51b8152602060048201526018602482015277115490cdcc8c4e881a5b9d985b1a59081d1bdad95b88125160421b60448201526064016104f1565b60006001600160a01b0382166106fe5760405162461bcd60e51b815260206004820152602960248201527f4552433732313a2061646472657373207a65726f206973206e6f7420612076616044820152683634b21037bbb732b960b91b60648201526084016104f1565b506001600160a01b031660009081526003602052604090205490565b6001600160a01b0381166000908152600960205260408120546103be565b60004382106107895760405162461bcd60e51b815260206004820152601a60248201527f566f7465733a20626c6f636b206e6f7420796574206d696e656400000000000060448201526064016104f1565b6103be600883610dc7565b6060600180546103d390612202565b6001600160a01b03811660009081526007602052604081206107c490610f6f565b6001600160e01b031692915050565b61060a338383610fa9565b60006103be82611077565b6107f33383610aa8565b61080f5760405162461bcd60e51b81526004016104f190612236565b61081b84848484611082565b50505050565b834211156108715760405162461bcd60e51b815260206004820152601860248201527f566f7465733a207369676e61747572652065787069726564000000000000000060448201526064016104f1565b604080517fe48329057bfd03d55e49b547132e39cffd9c1820ad7b9d4c5307691425d15adf60208201526001600160a01b0388169181019190915260608101869052608081018590526000906108eb906108e39060a001604051602081830303815290604052805190602001206110b5565b858585611103565b90506108f68161112b565b861461093b5760405162461bcd60e51b8152602060048201526014602482015273566f7465733a20696e76616c6964206e6f6e636560601b60448201526064016104f1565b6109458188610efd565b50505050505050565b6060610959826109d8565b600061098760408051808201909152600f81526e5c697066732d746f6b656e2d75726960881b602082015290565b905060008151116109a757604051806020016040528060008152506105f9565b806109b184611153565b6040516020016109c2929190612283565b6040516020818303038152906040529392505050565b6000818152600260205260409020546001600160a01b0316610a375760405162461bcd60e51b8152602060048201526018602482015277115490cdcc8c4e881a5b9d985b1a59081d1bdad95b88125160421b60448201526064016104f1565b50565b600081815260046020526040902080546001600160a01b0319166001600160a01b0384169081179091558190610a6f82610634565b6001600160a01b03167f8c5be1e5ebec7d5bd14f71427d1e84f3dd0314c0f7b2291e5b200ac8c7c3b92560405160405180910390a45050565b600080610ab483610634565b9050806001600160a01b0316846001600160a01b03161480610afb57506001600160a01b0380821660009081526005602090815260408083209388168352929052205460ff165b80610b1f5750836001600160a01b0316610b1484610456565b6001600160a01b0316145b949350505050565b826001600160a01b0316610b3a82610634565b6001600160a01b031614610b605760405162461bcd60e51b81526004016104f1906122b2565b6001600160a01b038216610bc25760405162461bcd60e51b8152602060048201526024808201527f4552433732313a207472616e7366657220746f20746865207a65726f206164646044820152637265737360e01b60648201526084016104f1565b610bcf83838360016111e6565b826001600160a01b0316610be282610634565b6001600160a01b031614610c085760405162461bcd60e51b81526004016104f1906122b2565b600081815260046020908152604080832080546001600160a01b03199081169091556001600160a01b0387811680865260038552838620805460001901905590871680865283862080546001019055868652600290945282852080549092168417909155905184937fddf252ad1be2c89b69c2b068fc378daa952ba7f163c4a11628f55a4df523b3ef91a4610592838383600161126e565b6000306001600160a01b037f000000000000000000000000000000000000000000000000000000000000000016148015610cf957507f000000000000000000000000000000000000000000000000000000000000000046145b15610d2357507f000000000000000000000000000000000000000000000000000000000000000090565b50604080517f00000000000000000000000000000000000000000000000000000000000000006020808301919091527f0000000000000000000000000000000000000000000000000000000000000000828401527f000000000000000000000000000000000000000000000000000000000000000060608301524660808301523060a0808401919091528351808403909101815260c0909201909252805191012090565b6000438210610e185760405162461bcd60e51b815260206004820181905260248201527f436865636b706f696e74733a20626c6f636b206e6f7420796574206d696e656460448201526064016104f1565b6000610e238361127a565b84549091506000816005811115610e81576000610e3f846112e3565b610e49908561230d565b60008981526020902090915081015463ffffffff9081169086161015610e7157809150610e7f565b610e7c816001612320565b92505b505b6000610e8f888685856113cb565b90508015610ecb57610eb488610ea660018461230d565b600091825260209091200190565b5464010000000090046001600160e01b0316610ece565b60005b6001600160e01b031698975050505050505050565b61060a828260405180602001604052806000815250611429565b6001600160a01b0382811660008181526006602052604080822080548686166001600160a01b0319821681179092559151919094169392849290917f3134e8a2e6d97e929a7e54011ea5485d7d196dd5f0ba4d4ef95803e8e3fc257f9190a46105928183610f6a86611077565b61145c565b80546000908015610fa057610f8983610ea660018461230d565b5464010000000090046001600160e01b03166105f9565b60009392505050565b816001600160a01b0316836001600160a01b03160361100a5760405162461bcd60e51b815260206004820152601960248201527f4552433732313a20617070726f766520746f2063616c6c65720000000000000060448201526064016104f1565b6001600160a01b03838116600081815260056020908152604080832094871680845294825291829020805460ff191686151590811790915591519182527f17307eab39ab6107e8899845ad3d59bd9653f200f220920489ca2b5937696c31910160405180910390a3505050565b60006103be82610694565b61108d848484610b27565b61109984848484611599565b61081b5760405162461bcd60e51b81526004016104f190612333565b60006103be6110c2610ca0565b8360405161190160f01b6020820152602281018390526042810182905260009060620160405160208183030381529060405280519060200120905092915050565b600080600061111487878787611697565b915091506111218161175b565b5095945050505050565b6001600160a01b03811660009081526009602052604090208054600181018255905b50919050565b60606000611160836118a5565b600101905060008167ffffffffffffffff8111156111805761118061207d565b6040519080825280601f01601f1916602001820160405280156111aa576020820181803683370190505b5090508181016020015b600019016f181899199a1a9b1b9c1cb0b131b232b360811b600a86061a8153600a85049450846111b457509392505050565b600181111561081b576001600160a01b0384161561122c576001600160a01b0384166000908152600360205260408120805483929061122690849061230d565b90915550505b6001600160a01b0383161561081b576001600160a01b03831660009081526003602052604081208054839290611263908490612320565b909155505050505050565b61081b8484848461197d565b600063ffffffff8211156112df5760405162461bcd60e51b815260206004820152602660248201527f53616665436173743a2076616c756520646f65736e27742066697420696e203360448201526532206269747360d01b60648201526084016104f1565b5090565b6000816000036112f557506000919050565b600060016113028461198d565b901c6001901b9050600181848161131b5761131b612385565b048201901c9050600181848161133357611333612385565b048201901c9050600181848161134b5761134b612385565b048201901c9050600181848161136357611363612385565b048201901c9050600181848161137b5761137b612385565b048201901c9050600181848161139357611393612385565b048201901c905060018184816113ab576113ab612385565b048201901c90506105f9818285816113c5576113c5612385565b04611a21565b60005b818310156114215760006113e28484611a37565b60008781526020902090915063ffffffff86169082015463ffffffff16111561140d5780925061141b565b611418816001612320565b93505b506113ce565b509392505050565b6114338383611a52565b6114406000848484611599565b6105925760405162461bcd60e51b81526004016104f190612333565b816001600160a01b0316836001600160a01b03161415801561147e5750600081115b15610592576001600160a01b0383161561150c576001600160a01b038316600090815260076020526040812081906114b990611bf585611c01565b91509150846001600160a01b03167fdec2bacdd2f05b59de34da9b523dff8be42e5e38e818c82fdb0bae774387a7248383604051611501929190918252602082015260400190565b60405180910390a250505b6001600160a01b03821615610592576001600160a01b0382166000908152600760205260408120819061154290611c3985611c01565b91509150836001600160a01b03167fdec2bacdd2f05b59de34da9b523dff8be42e5e38e818c82fdb0bae774387a724838360405161158a929190918252602082015260400190565b60405180910390a25050505050565b60006001600160a01b0384163b1561168f57604051630a85bd0160e11b81526001600160a01b0385169063150b7a02906115dd90339089908890889060040161239b565b6020604051808303816000875af1925050508015611618575060408051601f3d908101601f19168201909252611615918101906123d8565b60015b611675573d808015611646576040519150601f19603f3d011682016040523d82523d6000602084013e61164b565b606091505b50805160000361166d5760405162461bcd60e51b81526004016104f190612333565b805181602001fd5b6001600160e01b031916630a85bd0160e11b149050610b1f565b506001610b1f565b6000807f7fffffffffffffffffffffffffffffff5d576e7357a4501ddfe92f46681b20a08311156116ce5750600090506003611752565b6040805160008082526020820180845289905260ff881692820192909252606081018690526080810185905260019060a0016020604051602081039080840390855afa158015611722573d6000803e3d6000fd5b5050604051601f1901519150506001600160a01b03811661174b57600060019250925050611752565b9150600090505b94509492505050565b600081600481111561176f5761176f6123f5565b036117775750565b600181600481111561178b5761178b6123f5565b036117d85760405162461bcd60e51b815260206004820152601860248201527f45434453413a20696e76616c6964207369676e6174757265000000000000000060448201526064016104f1565b60028160048111156117ec576117ec6123f5565b036118395760405162461bcd60e51b815260206004820152601f60248201527f45434453413a20696e76616c6964207369676e6174757265206c656e6774680060448201526064016104f1565b600381600481111561184d5761184d6123f5565b03610a375760405162461bcd60e51b815260206004820152602260248201527f45434453413a20696e76616c6964207369676e6174757265202773272076616c604482015261756560f01b60648201526084016104f1565b60008072184f03e93ff9f4daa797ed6e38ed64bf6a1f0160401b83106118e45772184f03e93ff9f4daa797ed6e38ed64bf6a1f0160401b830492506040015b6d04ee2d6d415b85acef81000000008310611910576d04ee2d6d415b85acef8100000000830492506020015b662386f26fc10000831061192e57662386f26fc10000830492506010015b6305f5e1008310611946576305f5e100830492506008015b612710831061195a57612710830492506004015b6064831061196c576064830492506002015b600a83106103be5760010192915050565b611988848483611c45565b61081b565b600080608083901c156119a257608092831c92015b604083901c156119b457604092831c92015b602083901c156119c657602092831c92015b601083901c156119d857601092831c92015b600883901c156119ea57600892831c92015b600483901c156119fc57600492831c92015b600283901c15611a0e57600292831c92015b600183901c156103be5760010192915050565b6000818310611a3057816105f9565b5090919050565b6000611a46600284841861240b565b6105f990848416612320565b6001600160a01b038216611aa85760405162461bcd60e51b815260206004820181905260248201527f4552433732313a206d696e7420746f20746865207a65726f206164647265737360448201526064016104f1565b6000818152600260205260409020546001600160a01b031615611b0d5760405162461bcd60e51b815260206004820152601c60248201527f4552433732313a20746f6b656e20616c7265616479206d696e7465640000000060448201526064016104f1565b611b1b6000838360016111e6565b6000818152600260205260409020546001600160a01b031615611b805760405162461bcd60e51b815260206004820152601c60248201527f4552433732313a20746f6b656e20616c7265616479206d696e7465640000000060448201526064016104f1565b6001600160a01b038216600081815260036020908152604080832080546001019055848352600290915280822080546001600160a01b0319168417905551839291907fddf252ad1be2c89b69c2b068fc378daa952ba7f163c4a11628f55a4df523b3ef908290a461060a60008383600161126e565b60006105f9828461230d565b600080611c2c85611c27611c1488610f6f565b6001600160e01b0316868863ffffffff16565b611cb5565b915091505b935093915050565b60006105f98284612320565b6001600160a01b038316611c6457611c616008611c3983611c01565b50505b6001600160a01b038216611c8357611c806008611bf583611c01565b50505b6001600160a01b038381166000908152600660205260408082205485841683529120546105929291821691168361145c565b600080611cd384611cc54361127a565b611cce86611ce9565b611d52565b6001600160e01b03918216969116945092505050565b60006001600160e01b038211156112df5760405162461bcd60e51b815260206004820152602760248201527f53616665436173743a2076616c756520646f65736e27742066697420696e20326044820152663234206269747360c81b60648201526084016104f1565b825460009081908015611e9b576000611d7087610ea660018561230d565b60408051808201909152905463ffffffff8082168084526401000000009092046001600160e01b031660208401529192509087161015611df25760405162461bcd60e51b815260206004820152601760248201527f436865636b706f696e743a20696e76616c6964206b657900000000000000000060448201526064016104f1565b805163ffffffff808816911603611e3b5784611e1388610ea660018661230d565b80546001600160e01b03929092166401000000000263ffffffff909216919091179055611e8b565b6040805180820190915263ffffffff80881682526001600160e01b0380881660208085019182528b54600181018d5560008d81529190912094519151909216640100000000029216919091179101555b602001519250839150611c319050565b50506040805180820190915263ffffffff80851682526001600160e01b0380851660208085019182528854600181018a5560008a815291822095519251909316640100000000029190931617920191909155905081611c31565b6001600160e01b031981168114610a3757600080fd5b600060208284031215611f1d57600080fd5b81356105f981611ef5565b60005b83811015611f43578181015183820152602001611f2b565b50506000910152565b60008151808452611f64816020860160208601611f28565b601f01601f19169290920160200192915050565b6020815260006105f96020830184611f4c565b600060208284031215611f9d57600080fd5b5035919050565b80356001600160a01b0381168114611fbb57600080fd5b919050565b60008060408385031215611fd357600080fd5b611fdc83611fa4565b946020939093013593505050565b600080600060608486031215611fff57600080fd5b61200884611fa4565b925061201660208501611fa4565b9150604084013590509250925092565b60006020828403121561203857600080fd5b6105f982611fa4565b6000806040838503121561205457600080fd5b61205d83611fa4565b91506020830135801515811461207257600080fd5b809150509250929050565b634e487b7160e01b600052604160045260246000fd5b600080600080608085870312156120a957600080fd5b6120b285611fa4565b93506120c060208601611fa4565b925060408501359150606085013567ffffffffffffffff808211156120e457600080fd5b818701915087601f8301126120f857600080fd5b81358181111561210a5761210a61207d565b604051601f8201601f19908116603f011681019083821181831017156121325761213261207d565b816040528281528a602084870101111561214b57600080fd5b82602086016020830137600060208483010152809550505050505092959194509250565b60008060008060008060c0878903121561218857600080fd5b61219187611fa4565b95506020870135945060408701359350606087013560ff811681146121b557600080fd5b9598949750929560808101359460a0909101359350915050565b600080604083850312156121e257600080fd5b6121eb83611fa4565b91506121f960208401611fa4565b90509250929050565b600181811c9082168061221657607f821691505b60208210810361114d57634e487b7160e01b600052602260045260246000fd5b6020808252602d908201527f4552433732313a2063616c6c6572206973206e6f7420746f6b656e206f776e6560408201526c1c881bdc88185c1c1c9bdd9959609a1b606082015260800190565b60008351612295818460208801611f28565b8351908301906122a9818360208801611f28565b01949350505050565b60208082526025908201527f4552433732313a207472616e736665722066726f6d20696e636f72726563742060408201526437bbb732b960d91b606082015260800190565b634e487b7160e01b600052601160045260246000fd5b818103818111156103be576103be6122f7565b808201808211156103be576103be6122f7565b60208082526032908201527f4552433732313a207472616e7366657220746f206e6f6e20455243373231526560408201527131b2b4bb32b91034b6b83632b6b2b73a32b960711b606082015260800190565b634e487b7160e01b600052601260045260246000fd5b6001600160a01b03858116825284166020820152604081018390526080606082018190526000906123ce90830184611f4c565b9695505050505050565b6000602082840312156123ea57600080fd5b81516105f981611ef5565b634e487b7160e01b600052602160045260246000fd5b60008261242857634e487b7160e01b600052601260045260246000fd5b50049056fea2646970667358221220fd528d7251f23d7389ded0c96e11b036268f1c1fd1bb0f58e5871baa8d21e53964736f6c63430008110033",
  "linkReferences": {},
  "deployedLinkReferences": {}
}