{
  "_format": "hh-sol-artifact-1",
  "contractName": "MyGovernor",
  "sourceName": "contracts/GovernorContract.sol",
  "abi": [
    {
      "inputs": [
        {
          "internalType": "contract IVotes",
          "name": "_token",
          "type": "address"
        },
        {
          "internalType": "contract TimelockController",
          "name": "_timelock",
          "type": "address"
        },
        {
          "internalType": "uint256",
          "name": "_votingDelay",
          "type": "uint256"
        },
        {
          "internalType": "uint256",
          "name": "_votingPeriod",
          "type": "uint256"
        },
        {
          "internalType": "uint256",
          "name": "_quorumPercentage",
          "type": "uint256"
        },
        {
          "internalType": "uint256",
          "name": "_proposalThreshold",
          "type": "uint256"
        },
        {
          "internalType": "string",
          "name": "name",
          "type": "string"
        }
      ],
      "stateMutability": "nonpayable",
      "type": "constructor"
    },
    {
      "inputs": [],
      "name": "Empty",
      "type": "error"
    },
    {
      "anonymous": false,
      "inputs": [
        {
          "indexed": false,
          "internalType": "uint256",
          "name": "proposalId",
          "type": "uint256"
        }
      ],
      "name": "ProposalCanceled",
      "type": "event"
    },
    {
      "anonymous": false,
      "inputs": [
        {
          "indexed": false,
          "internalType": "uint256",
          "name": "proposalId",
          "type": "uint256"
        },
        {
          "indexed": false,
          "internalType": "address",
          "name": "proposer",
          "type": "address"
        },
        {
          "indexed": false,
          "internalType": "address[]",
          "name": "targets",
          "type": "address[]"
        },
        {
          "indexed": false,
          "internalType": "uint256[]",
          "name": "values",
          "type": "uint256[]"
        },
        {
          "indexed": false,
          "internalType": "string[]",
          "name": "signatures",
          "type": "string[]"
        },
        {
          "indexed": false,
          "internalType": "bytes[]",
          "name": "calldatas",
          "type": "bytes[]"
        },
        {
          "indexed": false,
          "internalType": "uint256",
          "name": "startBlock",
          "type": "uint256"
        },
        {
          "indexed": false,
          "internalType": "uint256",
          "name": "endBlock",
          "type": "uint256"
        },
        {
          "indexed": false,
          "internalType": "string",
          "name": "description",
          "type": "string"
        }
      ],
      "name": "ProposalCreated",
      "type": "event"
    },
    {
      "anonymous": false,
      "inputs": [
        {
          "indexed": false,
          "internalType": "uint256",
          "name": "proposalId",
          "type": "uint256"
        }
      ],
      "name": "ProposalExecuted",
      "type": "event"
    },
    {
      "anonymous": false,
      "inputs": [
        {
          "indexed": false,
          "internalType": "uint256",
          "name": "proposalId",
          "type": "uint256"
        },
        {
          "indexed": false,
          "internalType": "uint256",
          "name": "eta",
          "type": "uint256"
        }
      ],
      "name": "ProposalQueued",
      "type": "event"
    },
    {
      "anonymous": false,
      "inputs": [
        {
          "indexed": false,
          "internalType": "uint256",
          "name": "oldProposalThreshold",
          "type": "uint256"
        },
        {
          "indexed": false,
          "internalType": "uint256",
          "name": "newProposalThreshold",
          "type": "uint256"
        }
      ],
      "name": "ProposalThresholdSet",
      "type": "event"
    },
    {
      "anonymous": false,
      "inputs": [
        {
          "indexed": false,
          "internalType": "uint256",
          "name": "oldQuorumNumerator",
          "type": "uint256"
        },
        {
          "indexed": false,
          "internalType": "uint256",
          "name": "newQuorumNumerator",
          "type": "uint256"
        }
      ],
      "name": "QuorumNumeratorUpdated",
      "type": "event"
    },
    {
      "anonymous": false,
      "inputs": [
        {
          "indexed": false,
          "internalType": "address",
          "name": "oldTimelock",
          "type": "address"
        },
        {
          "indexed": false,
          "internalType": "address",
          "name": "newTimelock",
          "type": "address"
        }
      ],
      "name": "TimelockChange",
      "type": "event"
    },
    {
      "anonymous": false,
      "inputs": [
        {
          "indexed": true,
          "internalType": "address",
          "name": "voter",
          "type": "address"
        },
        {
          "indexed": false,
          "internalType": "uint256",
          "name": "proposalId",
          "type": "uint256"
        },
        {
          "indexed": false,
          "internalType": "uint8",
          "name": "support",
          "type": "uint8"
        },
        {
          "indexed": false,
          "internalType": "uint256",
          "name": "weight",
          "type": "uint256"
        },
        {
          "indexed": false,
          "internalType": "string",
          "name": "reason",
          "type": "string"
        }
      ],
      "name": "VoteCast",
      "type": "event"
    },
    {
      "anonymous": false,
      "inputs": [
        {
          "indexed": true,
          "internalType": "address",
          "name": "voter",
          "type": "address"
        },
        {
          "indexed": false,
          "internalType": "uint256",
          "name": "proposalId",
          "type": "uint256"
        },
        {
          "indexed": false,
          "internalType": "uint8",
          "name": "support",
          "type": "uint8"
        },
        {
          "indexed": false,
          "internalType": "uint256",
          "name": "weight",
          "type": "uint256"
        },
        {
          "indexed": false,
          "internalType": "string",
          "name": "reason",
          "type": "string"
        },
        {
          "indexed": false,
          "internalType": "bytes",
          "name": "params",
          "type": "bytes"
        }
      ],
      "name": "VoteCastWithParams",
      "type": "event"
    },
    {
      "anonymous": false,
      "inputs": [
        {
          "indexed": false,
          "internalType": "uint256",
          "name": "oldVotingDelay",
          "type": "uint256"
        },
        {
          "indexed": false,
          "internalType": "uint256",
          "name": "newVotingDelay",
          "type": "uint256"
        }
      ],
      "name": "VotingDelaySet",
      "type": "event"
    },
    {
      "anonymous": false,
      "inputs": [
        {
          "indexed": false,
          "internalType": "uint256",
          "name": "oldVotingPeriod",
          "type": "uint256"
        },
        {
          "indexed": false,
          "internalType": "uint256",
          "name": "newVotingPeriod",
          "type": "uint256"
        }
      ],
      "name": "VotingPeriodSet",
      "type": "event"
    },
    {
      "inputs": [],
      "name": "BALLOT_TYPEHASH",
      "outputs": [
        {
          "internalType": "bytes32",
          "name": "",
          "type": "bytes32"
        }
      ],
      "stateMutability": "view",
      "type": "function"
    },
    {
      "inputs": [],
      "name": "COUNTING_MODE",
      "outputs": [
        {
          "internalType": "string",
          "name": "",
          "type": "string"
        }
      ],
      "stateMutability": "pure",
      "type": "function"
    },
    {
      "inputs": [],
      "name": "EXTENDED_BALLOT_TYPEHASH",
      "outputs": [
        {
          "internalType": "bytes32",
          "name": "",
          "type": "bytes32"
        }
      ],
      "stateMutability": "view",
      "type": "function"
    },
    {
      "inputs": [
        {
          "internalType": "uint256",
          "name": "proposalId",
          "type": "uint256"
        },
        {
          "internalType": "uint8",
          "name": "support",
          "type": "uint8"
        }
      ],
      "name": "castVote",
      "outputs": [
        {
          "internalType": "uint256",
          "name": "",
          "type": "uint256"
        }
      ],
      "stateMutability": "nonpayable",
      "type": "function"
    },
    {
      "inputs": [
        {
          "internalType": "uint256",
          "name": "proposalId",
          "type": "uint256"
        },
        {
          "internalType": "uint8",
          "name": "support",
          "type": "uint8"
        },
        {
          "internalType": "uint8",
          "name": "v",
          "type": "uint8"
        },
        {
          "internalType": "bytes32",
          "name": "r",
          "type": "bytes32"
        },
        {
          "internalType": "bytes32",
          "name": "s",
          "type": "bytes32"
        }
      ],
      "name": "castVoteBySig",
      "outputs": [
        {
          "internalType": "uint256",
          "name": "",
          "type": "uint256"
        }
      ],
      "stateMutability": "nonpayable",
      "type": "function"
    },
    {
      "inputs": [
        {
          "internalType": "uint256",
          "name": "proposalId",
          "type": "uint256"
        },
        {
          "internalType": "uint8",
          "name": "support",
          "type": "uint8"
        },
        {
          "internalType": "string",
          "name": "reason",
          "type": "string"
        }
      ],
      "name": "castVoteWithReason",
      "outputs": [
        {
          "internalType": "uint256",
          "name": "",
          "type": "uint256"
        }
      ],
      "stateMutability": "nonpayable",
      "type": "function"
    },
    {
      "inputs": [
        {
          "internalType": "uint256",
          "name": "proposalId",
          "type": "uint256"
        },
        {
          "internalType": "uint8",
          "name": "support",
          "type": "uint8"
        },
        {
          "internalType": "string",
          "name": "reason",
          "type": "string"
        },
        {
          "internalType": "bytes",
          "name": "params",
          "type": "bytes"
        }
      ],
      "name": "castVoteWithReasonAndParams",
      "outputs": [
        {
          "internalType": "uint256",
          "name": "",
          "type": "uint256"
        }
      ],
      "stateMutability": "nonpayable",
      "type": "function"
    },
    {
      "inputs": [
        {
          "internalType": "uint256",
          "name": "proposalId",
          "type": "uint256"
        },
        {
          "internalType": "uint8",
          "name": "support",
          "type": "uint8"
        },
        {
          "internalType": "string",
          "name": "reason",
          "type": "string"
        },
        {
          "internalType": "bytes",
          "name": "params",
          "type": "bytes"
        },
        {
          "internalType": "uint8",
          "name": "v",
          "type": "uint8"
        },
        {
          "internalType": "bytes32",
          "name": "r",
          "type": "bytes32"
        },
        {
          "internalType": "bytes32",
          "name": "s",
          "type": "bytes32"
        }
      ],
      "name": "castVoteWithReasonAndParamsBySig",
      "outputs": [
        {
          "internalType": "uint256",
          "name": "",
          "type": "uint256"
        }
      ],
      "stateMutability": "nonpayable",
      "type": "function"
    },
    {
      "inputs": [
        {
          "internalType": "address[]",
          "name": "targets",
          "type": "address[]"
        },
        {
          "internalType": "uint256[]",
          "name": "values",
          "type": "uint256[]"
        },
        {
          "internalType": "bytes[]",
          "name": "calldatas",
          "type": "bytes[]"
        },
        {
          "internalType": "bytes32",
          "name": "descriptionHash",
          "type": "bytes32"
        }
      ],
      "name": "execute",
      "outputs": [
        {
          "internalType": "uint256",
          "name": "",
          "type": "uint256"
        }
      ],
      "stateMutability": "payable",
      "type": "function"
    },
    {
      "inputs": [
        {
          "internalType": "address",
          "name": "account",
          "type": "address"
        },
        {
          "internalType": "uint256",
          "name": "blockNumber",
          "type": "uint256"
        }
      ],
      "name": "getVotes",
      "outputs": [
        {
          "internalType": "uint256",
          "name": "",
          "type": "uint256"
        }
      ],
      "stateMutability": "view",
      "type": "function"
    },
    {
      "inputs": [
        {
          "internalType": "address",
          "name": "account",
          "type": "address"
        },
        {
          "internalType": "uint256",
          "name": "blockNumber",
          "type": "uint256"
        },
        {
          "internalType": "bytes",
          "name": "params",
          "type": "bytes"
        }
      ],
      "name": "getVotesWithParams",
      "outputs": [
        {
          "internalType": "uint256",
          "name": "",
          "type": "uint256"
        }
      ],
      "stateMutability": "view",
      "type": "function"
    },
    {
      "inputs": [
        {
          "internalType": "uint256",
          "name": "proposalId",
          "type": "uint256"
        },
        {
          "internalType": "address",
          "name": "account",
          "type": "address"
        }
      ],
      "name": "hasVoted",
      "outputs": [
        {
          "internalType": "bool",
          "name": "",
          "type": "bool"
        }
      ],
      "stateMutability": "view",
      "type": "function"
    },
    {
      "inputs": [
        {
          "internalType": "address[]",
          "name": "targets",
          "type": "address[]"
        },
        {
          "internalType": "uint256[]",
          "name": "values",
          "type": "uint256[]"
        },
        {
          "internalType": "bytes[]",
          "name": "calldatas",
          "type": "bytes[]"
        },
        {
          "internalType": "bytes32",
          "name": "descriptionHash",
          "type": "bytes32"
        }
      ],
      "name": "hashProposal",
      "outputs": [
        {
          "internalType": "uint256",
          "name": "",
          "type": "uint256"
        }
      ],
      "stateMutability": "pure",
      "type": "function"
    },
    {
      "inputs": [],
      "name": "name",
      "outputs": [
        {
          "internalType": "string",
          "name": "",
          "type": "string"
        }
      ],
      "stateMutability": "view",
      "type": "function"
    },
    {
      "inputs": [
        {
          "internalType": "address",
          "name": "",
          "type": "address"
        },
        {
          "internalType": "address",
          "name": "",
          "type": "address"
        },
        {
          "internalType": "uint256[]",
          "name": "",
          "type": "uint256[]"
        },
        {
          "internalType": "uint256[]",
          "name": "",
          "type": "uint256[]"
        },
        {
          "internalType": "bytes",
          "name": "",
          "type": "bytes"
        }
      ],
      "name": "onERC1155BatchReceived",
      "outputs": [
        {
          "internalType": "bytes4",
          "name": "",
          "type": "bytes4"
        }
      ],
      "stateMutability": "nonpayable",
      "type": "function"
    },
    {
      "inputs": [
        {
          "internalType": "address",
          "name": "",
          "type": "address"
        },
        {
          "internalType": "address",
          "name": "",
          "type": "address"
        },
        {
          "internalType": "uint256",
          "name": "",
          "type": "uint256"
        },
        {
          "internalType": "uint256",
          "name": "",
          "type": "uint256"
        },
        {
          "internalType": "bytes",
          "name": "",
          "type": "bytes"
        }
      ],
      "name": "onERC1155Received",
      "outputs": [
        {
          "internalType": "bytes4",
          "name": "",
          "type": "bytes4"
        }
      ],
      "stateMutability": "nonpayable",
      "type": "function"
    },
    {
      "inputs": [
        {
          "internalType": "address",
          "name": "",
          "type": "address"
        },
        {
          "internalType": "address",
          "name": "",
          "type": "address"
        },
        {
          "internalType": "uint256",
          "name": "",
          "type": "uint256"
        },
        {
          "internalType": "bytes",
          "name": "",
          "type": "bytes"
        }
      ],
      "name": "onERC721Received",
      "outputs": [
        {
          "internalType": "bytes4",
          "name": "",
          "type": "bytes4"
        }
      ],
      "stateMutability": "nonpayable",
      "type": "function"
    },
    {
      "inputs": [
        {
          "internalType": "uint256",
          "name": "proposalId",
          "type": "uint256"
        }
      ],
      "name": "proposalDeadline",
      "outputs": [
        {
          "internalType": "uint256",
          "name": "",
          "type": "uint256"
        }
      ],
      "stateMutability": "view",
      "type": "function"
    },
    {
      "inputs": [
        {
          "internalType": "uint256",
          "name": "proposalId",
          "type": "uint256"
        }
      ],
      "name": "proposalEta",
      "outputs": [
        {
          "internalType": "uint256",
          "name": "",
          "type": "uint256"
        }
      ],
      "stateMutability": "view",
      "type": "function"
    },
    {
      "inputs": [
        {
          "internalType": "uint256",
          "name": "proposalId",
          "type": "uint256"
        }
      ],
      "name": "proposalSnapshot",
      "outputs": [
        {
          "internalType": "uint256",
          "name": "",
          "type": "uint256"
        }
      ],
      "stateMutability": "view",
      "type": "function"
    },
    {
      "inputs": [],
      "name": "proposalThreshold",
      "outputs": [
        {
          "internalType": "uint256",
          "name": "",
          "type": "uint256"
        }
      ],
      "stateMutability": "view",
      "type": "function"
    },
    {
      "inputs": [
        {
          "internalType": "uint256",
          "name": "proposalId",
          "type": "uint256"
        }
      ],
      "name": "proposalVotes",
      "outputs": [
        {
          "internalType": "uint256",
          "name": "againstVotes",
          "type": "uint256"
        },
        {
          "internalType": "uint256",
          "name": "forVotes",
          "type": "uint256"
        },
        {
          "internalType": "uint256",
          "name": "abstainVotes",
          "type": "uint256"
        }
      ],
      "stateMutability": "view",
      "type": "function"
    },
    {
      "inputs": [
        {
          "internalType": "address[]",
          "name": "targets",
          "type": "address[]"
        },
        {
          "internalType": "uint256[]",
          "name": "values",
          "type": "uint256[]"
        },
        {
          "internalType": "bytes[]",
          "name": "calldatas",
          "type": "bytes[]"
        },
        {
          "internalType": "string",
          "name": "description",
          "type": "string"
        }
      ],
      "name": "propose",
      "outputs": [
        {
          "internalType": "uint256",
          "name": "",
          "type": "uint256"
        }
      ],
      "stateMutability": "nonpayable",
      "type": "function"
    },
    {
      "inputs": [
        {
          "internalType": "address[]",
          "name": "targets",
          "type": "address[]"
        },
        {
          "internalType": "uint256[]",
          "name": "values",
          "type": "uint256[]"
        },
        {
          "internalType": "bytes[]",
          "name": "calldatas",
          "type": "bytes[]"
        },
        {
          "internalType": "bytes32",
          "name": "descriptionHash",
          "type": "bytes32"
        }
      ],
      "name": "queue",
      "outputs": [
        {
          "internalType": "uint256",
          "name": "",
          "type": "uint256"
        }
      ],
      "stateMutability": "nonpayable",
      "type": "function"
    },
    {
      "inputs": [
        {
          "internalType": "uint256",
          "name": "blockNumber",
          "type": "uint256"
        }
      ],
      "name": "quorum",
      "outputs": [
        {
          "internalType": "uint256",
          "name": "",
          "type": "uint256"
        }
      ],
      "stateMutability": "view",
      "type": "function"
    },
    {
      "inputs": [],
      "name": "quorumDenominator",
      "outputs": [
        {
          "internalType": "uint256",
          "name": "",
          "type": "uint256"
        }
      ],
      "stateMutability": "view",
      "type": "function"
    },
    {
      "inputs": [
        {
          "internalType": "uint256",
          "name": "blockNumber",
          "type": "uint256"
        }
      ],
      "name": "quorumNumerator",
      "outputs": [
        {
          "internalType": "uint256",
          "name": "",
          "type": "uint256"
        }
      ],
      "stateMutability": "view",
      "type": "function"
    },
    {
      "inputs": [],
      "name": "quorumNumerator",
      "outputs": [
        {
          "internalType": "uint256",
          "name": "",
          "type": "uint256"
        }
      ],
      "stateMutability": "view",
      "type": "function"
    },
    {
      "inputs": [
        {
          "internalType": "address",
          "name": "target",
          "type": "address"
        },
        {
          "internalType": "uint256",
          "name": "value",
          "type": "uint256"
        },
        {
          "internalType": "bytes",
          "name": "data",
          "type": "bytes"
        }
      ],
      "name": "relay",
      "outputs": [],
      "stateMutability": "payable",
      "type": "function"
    },
    {
      "inputs": [
        {
          "internalType": "uint256",
          "name": "newProposalThreshold",
          "type": "uint256"
        }
      ],
      "name": "setProposalThreshold",
      "outputs": [],
      "stateMutability": "nonpayable",
      "type": "function"
    },
    {
      "inputs": [
        {
          "internalType": "uint256",
          "name": "newVotingDelay",
          "type": "uint256"
        }
      ],
      "name": "setVotingDelay",
      "outputs": [],
      "stateMutability": "nonpayable",
      "type": "function"
    },
    {
      "inputs": [
        {
          "internalType": "uint256",
          "name": "newVotingPeriod",
          "type": "uint256"
        }
      ],
      "name": "setVotingPeriod",
      "outputs": [],
      "stateMutability": "nonpayable",
      "type": "function"
    },
    {
      "inputs": [
        {
          "internalType": "uint256",
          "name": "proposalId",
          "type": "uint256"
        }
      ],
      "name": "state",
      "outputs": [
        {
          "internalType": "enum IGovernor.ProposalState",
          "name": "",
          "type": "uint8"
        }
      ],
      "stateMutability": "view",
      "type": "function"
    },
    {
      "inputs": [
        {
          "internalType": "bytes4",
          "name": "interfaceId",
          "type": "bytes4"
        }
      ],
      "name": "supportsInterface",
      "outputs": [
        {
          "internalType": "bool",
          "name": "",
          "type": "bool"
        }
      ],
      "stateMutability": "view",
      "type": "function"
    },
    {
      "inputs": [],
      "name": "timelock",
      "outputs": [
        {
          "internalType": "address",
          "name": "",
          "type": "address"
        }
      ],
      "stateMutability": "view",
      "type": "function"
    },
    {
      "inputs": [],
      "name": "token",
      "outputs": [
        {
          "internalType": "contract IVotes",
          "name": "",
          "type": "address"
        }
      ],
      "stateMutability": "view",
      "type": "function"
    },
    {
      "inputs": [
        {
          "internalType": "uint256",
          "name": "newQuorumNumerator",
          "type": "uint256"
        }
      ],
      "name": "updateQuorumNumerator",
      "outputs": [],
      "stateMutability": "nonpayable",
      "type": "function"
    },
    {
      "inputs": [
        {
          "internalType": "contract TimelockController",
          "name": "newTimelock",
          "type": "address"
        }
      ],
      "name": "updateTimelock",
      "outputs": [],
      "stateMutability": "nonpayable",
      "type": "function"
    },
    {
      "inputs": [],
      "name": "version",
      "outputs": [
        {
          "internalType": "string",
          "name": "",
          "type": "string"
        }
      ],
      "stateMutability": "view",
      "type": "function"
    },
    {
      "inputs": [],
      "name": "votingDelay",
      "outputs": [
        {
          "internalType": "uint256",
          "name": "",
          "type": "uint256"
        }
      ],
      "stateMutability": "view",
      "type": "function"
    },
    {
      "inputs": [],
      "name": "votingPeriod",
      "outputs": [
        {
          "internalType": "uint256",
          "name": "",
          "type": "uint256"
        }
      ],
      "stateMutability": "view",
      "type": "function"
    },
    {
      "stateMutability": "payable",
      "type": "receive"
    }
  ],
  "bytecode": "0x6101606040523480156200001257600080fd5b50604051620045ad380380620045ad8339810160408190526200003591620007ed565b85838887878686806200005c6040805180820190915260018152603160f81b602082015290565b815160209283012081519183019190912060e08290526101008190524660a0818152604080517f8b73c3c69bb8fe3d512ecc4cf759cc79239f7b179b0ffacaa9a75d522b39400f818801819052818301969096526060810194909452608080850193909352308483018190528151808603909301835260c094850190915281519190950120905291909152610120526000620000f98282620009a5565b506200010790508362000152565b620001128262000193565b6200011d816200023a565b5050506001600160a01b03166101405262000138816200027b565b506200014481620003f3565b505050505050505062000a99565b60045460408051918252602082018390527fc565b045403dc03c2eea82b81a0465edad9e2e7fc4d97e11421c209da93d7a93910160405180910390a1600455565b60008111620001f95760405162461bcd60e51b815260206004820152602760248201527f476f7665726e6f7253657474696e67733a20766f74696e6720706572696f6420604482015266746f6f206c6f7760c81b60648201526084015b60405180910390fd5b60055460408051918252602082018390527f7e3f7f0708a84de9203036abaa450dccc85ad5ff52f78c170f3edb55cf5e8828910160405180910390a1600555565b60065460408051918252602082018390527fccb45da8d5717e6c4544694297c4ba5cf151d455c9bb0ed4fc7a38411bc05461910160405180910390a1600655565b6064811115620003005760405162461bcd60e51b815260206004820152604360248201527f476f7665726e6f72566f74657351756f72756d4672616374696f6e3a2071756f60448201527f72756d4e756d657261746f72206f7665722071756f72756d44656e6f6d696e616064820152623a37b960e91b608482015260a401620001f0565b60006200030c6200045c565b905080158015906200031e5750600954155b15620003995760096000016040518060400160405280600063ffffffff16815260200162000357846200049460201b620014781760201c565b6001600160e01b0390811690915282546001810184556000938452602093849020835194909301519091166401000000000263ffffffff909316929092179101555b620003b48260096200050360201b620014e51790919060201c565b505060408051828152602081018490527f0553476bf02ef2726e8ce5ced78d63e26e602e4a2257b1f559418e24b4633997910160405180910390a15050565b600a54604080516001600160a01b03928316815291831660208301527f08f74ea46ef7894f65eabfb5e6e695de773a000b47c529ab559178069b226401910160405180910390a1600a80546001600160a01b0319166001600160a01b0392909216919091179055565b600954600090156200048d576200047f60096200055660201b6200151b1760201c565b6001600160e01b0316905090565b5060085490565b60006001600160e01b03821115620004ff5760405162461bcd60e51b815260206004820152602760248201527f53616665436173743a2076616c756520646f65736e27742066697420696e20326044820152663234206269747360c81b6064820152608401620001f0565b5090565b60008062000540846000016200052443620005a460201b620015591760201c565b6200053a866200049460201b620014781760201c565b6200060b565b6001600160e01b03918216969116945092505050565b805460009080156200059a5762000582836200057460018462000a71565b600091825260209091200190565b5464010000000090046001600160e01b03166200059d565b60005b9392505050565b600063ffffffff821115620004ff5760405162461bcd60e51b815260206004820152602660248201527f53616665436173743a2076616c756520646f65736e27742066697420696e203360448201526532206269747360d01b6064820152608401620001f0565b825460009081908015620007605760006200062d876200057460018562000a71565b60408051808201909152905463ffffffff8082168084526401000000009092046001600160e01b031660208401529192509087161015620006b15760405162461bcd60e51b815260206004820152601760248201527f436865636b706f696e743a20696e76616c6964206b65790000000000000000006044820152606401620001f0565b805163ffffffff808816911603620006ff5784620006d6886200057460018662000a71565b80546001600160e01b03929092166401000000000263ffffffff9092169190911790556200074f565b6040805180820190915263ffffffff80881682526001600160e01b0380881660208085019182528b54600181018d5560008d81529190912094519151909216640100000000029216919091179101555b602001519250839150620007b69050565b50506040805180820190915263ffffffff80851682526001600160e01b0380851660208085019182528854600181018a5560008a8152918220955192519093166401000000000291909316179201919091559050815b935093915050565b6001600160a01b0381168114620007d457600080fd5b50565b634e487b7160e01b600052604160045260246000fd5b600080600080600080600060e0888a0312156200080957600080fd5b87516200081681620007be565b809750506020808901516200082b81620007be565b60408a015160608b015160808c015160a08d015160c08e0151949b50929950909750955093506001600160401b03808211156200086757600080fd5b818b0191508b601f8301126200087c57600080fd5b815181811115620008915762000891620007d7565b604051601f8201601f19908116603f01168101908382118183101715620008bc57620008bc620007d7565b816040528281528e86848701011115620008d557600080fd5b600093505b82841015620008f95784840186015181850187015292850192620008da565b600086848301015280965050505050505092959891949750929550565b600181811c908216806200092b57607f821691505b6020821081036200094c57634e487b7160e01b600052602260045260246000fd5b50919050565b601f821115620009a057600081815260208120601f850160051c810160208610156200097b5750805b601f850160051c820191505b818110156200099c5782815560010162000987565b5050505b505050565b81516001600160401b03811115620009c157620009c1620007d7565b620009d981620009d2845462000916565b8462000952565b602080601f83116001811462000a115760008415620009f85750858301515b600019600386901b1c1916600185901b1785556200099c565b600085815260208120601f198616915b8281101562000a425788860151825594840194600190910190840162000a21565b508582101562000a615787850151600019600388901b60f8161c191681555b5050505050600190811b01905550565b8181038181111562000a9357634e487b7160e01b600052601160045260246000fd5b92915050565b60805160a05160c05160e051610100516101205161014051613aab62000b026000396000818161084f01528181611fc701526121bb015260006124da01526000612529015260006125040152600061245d01526000612487015260006124b10152613aab6000f3fe60806040526004361061024a5760003560e01c80637b3c71d311610139578063c28bc2fa116100b6578063ea0217cf1161007a578063ea0217cf14610791578063eb9019d4146107b1578063ece40cc1146107d1578063f23a6e61146107f1578063f8ce560a1461081d578063fc0c546a1461083d57600080fd5b8063c28bc2fa146106b2578063c59057e4146106c5578063d33219b4146106e5578063dd4e2ba514610717578063deaaa7cc1461075d57600080fd5b8063a890c910116100fd578063a890c91014610611578063ab58fb8e14610631578063b58131b014610651578063bc197c8114610666578063c01f9e371461069257600080fd5b80637b3c71d3146105885780637d5e81e2146105a857806397c3d334146105c85780639a802a6d146105dc578063a7713a70146105fc57600080fd5b80633932abb1116101c757806354fd4d501161018b57806354fd4d50146104de57806356781388146105085780635f398a141461052857806360c4247f1461054857806370b0f6601461056857600080fd5b80633932abb1146103dd5780633bccf4fd146103f25780633e4f49e614610412578063438596321461043f578063544ffc9c1461048957600080fd5b8063150b7a021161020e578063150b7a0214610312578063160cbed7146103565780632656227d146103765780632d63f693146103895780632fe3e261146103a957600080fd5b806301ffc9a71461025657806302a251a31461028b57806303420181146102ae57806306f3f9e6146102ce57806306fdde03146102f057600080fd5b3661025157005b600080fd5b34801561026257600080fd5b50610276610271366004612c00565b610871565b60405190151581526020015b60405180910390f35b34801561029757600080fd5b506102a0610882565b604051908152602001610282565b3480156102ba57600080fd5b506102a06102c9366004612d3e565b610892565b3480156102da57600080fd5b506102ee6102e9366004612de4565b61098a565b005b3480156102fc57600080fd5b50610305610a1d565b6040516102829190612e43565b34801561031e57600080fd5b5061033d61032d366004612e6b565b630a85bd0160e11b949350505050565b6040516001600160e01b03199091168152602001610282565b34801561036257600080fd5b506102a0610371366004613047565b610aaf565b6102a0610384366004613047565b610caf565b34801561039557600080fd5b506102a06103a4366004612de4565b610d9c565b3480156103b557600080fd5b506102a07fb3b3f3b703cd84ce352197dcff232b1b5d3cfb2025ce47cf04742d0651f1af8881565b3480156103e957600080fd5b506102a0610dd3565b3480156103fe57600080fd5b506102a061040d3660046130d6565b610dde565b34801561041e57600080fd5b5061043261042d366004612de4565b610e54565b604051610282919061313a565b34801561044b57600080fd5b5061027661045a366004613162565b60008281526007602090815260408083206001600160a01b038516845260030190915290205460ff1692915050565b34801561049557600080fd5b506104c36104a4366004612de4565b6000908152600760205260409020805460018201546002909201549092565b60408051938452602084019290925290820152606001610282565b3480156104ea57600080fd5b506040805180820190915260018152603160f81b6020820152610305565b34801561051457600080fd5b506102a0610523366004613192565b610e5f565b34801561053457600080fd5b506102a06105433660046131be565b610e88565b34801561055457600080fd5b506102a0610563366004612de4565b610ed2565b34801561057457600080fd5b506102ee610583366004612de4565b610f69565b34801561059457600080fd5b506102a06105a3366004613241565b610ff0565b3480156105b457600080fd5b506102a06105c336600461329a565b611042565b3480156105d457600080fd5b5060646102a0565b3480156105e857600080fd5b506102a06105f736600461334e565b611059565b34801561060857600080fd5b506102a0611070565b34801561061d57600080fd5b506102ee61062c3660046133a6565b61109a565b34801561063d57600080fd5b506102a061064c366004612de4565b611121565b34801561065d57600080fd5b506102a06111bb565b34801561067257600080fd5b5061033d6106813660046133c3565b63bc197c8160e01b95945050505050565b34801561069e57600080fd5b506102a06106ad366004612de4565b6111c6565b6102ee6106c0366004613456565b6111f5565b3480156106d157600080fd5b506102a06106e0366004613047565b611304565b3480156106f157600080fd5b50600a546001600160a01b03165b6040516001600160a01b039091168152602001610282565b34801561072357600080fd5b506040805180820190915260208082527f737570706f72743d627261766f2671756f72756d3d666f722c6162737461696e90820152610305565b34801561076957600080fd5b506102a07f150214d74d59b7d1e90c73fc22ef3d991dd0a76b046543d4d80ab92d2a50328f81565b34801561079d57600080fd5b506102ee6107ac366004612de4565b61133e565b3480156107bd57600080fd5b506102a06107cc366004613499565b6113c5565b3480156107dd57600080fd5b506102ee6107ec366004612de4565b6113e6565b3480156107fd57600080fd5b5061033d61080c3660046134c5565b63f23a6e6160e01b95945050505050565b34801561082957600080fd5b506102a0610838366004612de4565b61146d565b34801561084957600080fd5b506106ff7f000000000000000000000000000000000000000000000000000000000000000081565b600061087c826115be565b92915050565b600061088d60055490565b905090565b60008061093661092e7fb3b3f3b703cd84ce352197dcff232b1b5d3cfb2025ce47cf04742d0651f1af888c8c8c8c6040516108ce92919061352d565b60405180910390208b80519060200120604051602001610913959493929190948552602085019390935260ff9190911660408401526060830152608082015260a00190565b604051602081830303815290604052805190602001206115e3565b868686611631565b905061097c8a828b8b8b8080601f0160208091040260200160405190810160405280939291908181526020018383808284376000920191909152508d925061164f915050565b9a9950505050505050505050565b6109926117b4565b6001600160a01b0316336001600160a01b0316146109cb5760405162461bcd60e51b81526004016109c29061353d565b60405180910390fd5b306109d46117b4565b6001600160a01b031614610a1157600080366040516109f492919061352d565b604051809103902090505b80610a0a60026117c8565b036109ff57505b610a1a81611847565b50565b606060008054610a2c90613574565b80601f0160208091040260200160405190810160405280929190818152602001828054610a5890613574565b8015610aa55780601f10610a7a57610100808354040283529160200191610aa5565b820191906000526020600020905b815481529060010190602001808311610a8857829003601f168201915b5050505050905090565b600080610abe86868686611304565b90506004610acb82610e54565b6007811115610adc57610adc613124565b14610af95760405162461bcd60e51b81526004016109c2906135ae565b600a546040805163793d064960e11b815290516000926001600160a01b03169163f27a0c929160048083019260209291908290030181865afa158015610b43573d6000803e3d6000fd5b505050506040513d601f19601f82011682018060405250810190610b6791906135ef565b600a5460405163b1c5f42760e01b81529192506001600160a01b03169063b1c5f42790610ba1908a908a908a906000908b906004016136d1565b602060405180830381865afa158015610bbe573d6000803e3d6000fd5b505050506040513d601f19601f82011682018060405250810190610be291906135ef565b6000838152600b602052604080822092909255600a5491516308f2a0bb60e41b81526001600160a01b0390921691638f2a0bb091610c2d918b918b918b91908b90899060040161371f565b600060405180830381600087803b158015610c4757600080fd5b505af1158015610c5b573d6000803e3d6000fd5b505050507f9a2e42fd6722813d69113e7d0079d3d940171428df7373df9c7f7617cfda2892828242610c8d919061378d565b6040805192835260208301919091520160405180910390a15095945050505050565b600080610cbe86868686611304565b90506000610ccb82610e54565b90506004816007811115610ce157610ce1613124565b1480610cfe57506005816007811115610cfc57610cfc613124565b145b610d1a5760405162461bcd60e51b81526004016109c2906135ae565b600082815260016020818152604092839020600201805460ff191690921790915590518381527f712ae1383f79ac853f8d882153778e0260ef8f03b504e2866e0593e04d2b291f910160405180910390a1610d788288888888611993565b610d858288888888611a35565b610d928288888888611a42565b5095945050505050565b60008181526001602090815260408083208151928301909152546001600160401b0316908190525b6001600160401b031692915050565b600061088d60045490565b604080517f150214d74d59b7d1e90c73fc22ef3d991dd0a76b046543d4d80ab92d2a50328f602082015290810186905260ff851660608201526000908190610e2c9061092e90608001610913565b9050610e4987828860405180602001604052806000815250611a7b565b979650505050505050565b600061087c82611a9e565b600080339050610e8084828560405180602001604052806000815250611a7b565b949350505050565b600080339050610e4987828888888080601f0160208091040260200160405190810160405280939291908181526020018383808284376000920191909152508a925061164f915050565b600954600090808203610ee9575050600854919050565b60006009610ef86001846137a0565b81548110610f0857610f086137b3565b60009182526020918290206040805180820190915291015463ffffffff8116808352600160201b9091046001600160e01b03169282019290925291508410610f5e57602001516001600160e01b03169392505050565b610e80600985611be8565b610f716117b4565b6001600160a01b0316336001600160a01b031614610fa15760405162461bcd60e51b81526004016109c29061353d565b30610faa6117b4565b6001600160a01b031614610fe75760008036604051610fca92919061352d565b604051809103902090505b80610fe060026117c8565b03610fd557505b610a1a81611c9a565b60008033905061103886828787878080601f016020809104026020016040519081016040528093929190818152602001838380828437600092019190915250611a7b92505050565b9695505050505050565b600061105085858585611cdb565b95945050505050565b6000611066848484611f9e565b90505b9392505050565b6009546000901561109357611085600961151b565b6001600160e01b0316905090565b5060085490565b6110a26117b4565b6001600160a01b0316336001600160a01b0316146110d25760405162461bcd60e51b81526004016109c29061353d565b306110db6117b4565b6001600160a01b03161461111857600080366040516110fb92919061352d565b604051809103902090505b8061111160026117c8565b0361110657505b610a1a81612034565b600a546000828152600b602052604080822054905163d45c443560e01b81526004810191909152909182916001600160a01b039091169063d45c443590602401602060405180830381865afa15801561117e573d6000803e3d6000fd5b505050506040513d601f19601f820116820180604052508101906111a291906135ef565b9050806001146111b25780611069565b60009392505050565b600061088d60065490565b60008181526001602081815260408084208151928301909152909101546001600160401b031690819052610dc4565b6111fd6117b4565b6001600160a01b0316336001600160a01b03161461122d5760405162461bcd60e51b81526004016109c29061353d565b306112366117b4565b6001600160a01b031614611273576000803660405161125692919061352d565b604051809103902090505b8061126c60026117c8565b0361126157505b600080856001600160a01b031685858560405161129192919061352d565b60006040518083038185875af1925050503d80600081146112ce576040519150601f19603f3d011682016040523d82523d6000602084013e6112d3565b606091505b50915091506112fb8282604051806060016040528060288152602001613a4e6028913961209d565b50505050505050565b60008484848460405160200161131d94939291906137c9565b60408051601f19818403018152919052805160209091012095945050505050565b6113466117b4565b6001600160a01b0316336001600160a01b0316146113765760405162461bcd60e51b81526004016109c29061353d565b3061137f6117b4565b6001600160a01b0316146113bc576000803660405161139f92919061352d565b604051809103902090505b806113b560026117c8565b036113aa57505b610a1a816120b6565b600061106983836113e160408051602081019091526000815290565b611f9e565b6113ee6117b4565b6001600160a01b0316336001600160a01b03161461141e5760405162461bcd60e51b81526004016109c29061353d565b306114276117b4565b6001600160a01b031614611464576000803660405161144792919061352d565b604051809103902090505b8061145d60026117c8565b0361145257505b610a1a81612157565b600061087c82612198565b60006001600160e01b038211156114e15760405162461bcd60e51b815260206004820152602760248201527f53616665436173743a2076616c756520646f65736e27742066697420696e20326044820152663234206269747360c81b60648201526084016109c2565b5090565b600080611503846114f543611559565b6114fe86611478565b612242565b6001600160e01b0391821693501690505b9250929050565b805460009080156111b257611543836115356001846137a0565b600091825260209091200190565b54600160201b90046001600160e01b0316611069565b600063ffffffff8211156114e15760405162461bcd60e51b815260206004820152602660248201527f53616665436173743a2076616c756520646f65736e27742066697420696e203360448201526532206269747360d01b60648201526084016109c2565b60006001600160e01b03198216636e665ced60e01b148061087c575061087c826123e5565b600061087c6115f0612450565b8360405161190160f01b6020820152602281018390526042810182905260009060620160405160208183030381529060405280519060200120905092915050565b600080600061164287878787612577565b91509150610d928161263b565b600085815260016020819052604082209061166988610e54565b600781111561167a5761167a613124565b146116d35760405162461bcd60e51b815260206004820152602360248201527f476f7665726e6f723a20766f7465206e6f742063757272656e746c792061637460448201526269766560e81b60648201526084016109c2565b604080516020810190915281546001600160401b0316908190526000906116fc90889086611f9e565b905061170b8888888488612785565b835160000361176057866001600160a01b03167fb8e138887d0aa13bab447e82de9d5c1777041ecd21ca36ba824ff1e6c07ddda4898884896040516117539493929190613814565b60405180910390a2610e49565b866001600160a01b03167fe2babfbac5889a709b63bb7f598b324e08bc5a4fb9ec647fb3cbc9ec07eb871289888489896040516117a195949392919061383c565b60405180910390a2979650505050505050565b600061088d600a546001600160a01b031690565b60006117e38254600f81810b600160801b909204900b131590565b1561180157604051631ed9509560e11b815260040160405180910390fd5b508054600f0b6000818152600180840160205260408220805492905583546fffffffffffffffffffffffffffffffff191692016001600160801b03169190911790915590565b60648111156118ca5760405162461bcd60e51b815260206004820152604360248201527f476f7665726e6f72566f74657351756f72756d4672616374696f6e3a2071756f60448201527f72756d4e756d657261746f72206f7665722071756f72756d44656e6f6d696e616064820152623a37b960e91b608482015260a4016109c2565b60006118d4611070565b905080158015906118e55750600954155b156119495760408051808201909152600081526009906020810161190884611478565b6001600160e01b039081169091528254600181018455600093845260209384902083519490930151909116600160201b0263ffffffff909316929092179101555b6119546009836114e5565b505060408051828152602081018490527f0553476bf02ef2726e8ce5ced78d63e26e602e4a2257b1f559418e24b4633997910160405180910390a15050565b3061199c6117b4565b6001600160a01b031614611a2e5760005b8451811015611a2c57306001600160a01b03168582815181106119d2576119d26137b3565b60200260200101516001600160a01b031603611a1c57611a1c8382815181106119fd576119fd6137b3565b60200260200101518051906020012060026128ff90919063ffffffff16565b611a2581613882565b90506119ad565b505b5050505050565b611a2e858585858561293b565b30611a4b6117b4565b6001600160a01b031614611a2e57600254600f81810b600160801b909204900b1315611a2e576000600255611a2e565b600061105085858585611a9960408051602081019091526000815290565b61164f565b600080611aaa836129af565b90506004816007811115611ac057611ac0613124565b14611acb5792915050565b6000838152600b602052604090205480611ae6575092915050565b600a54604051632ab0f52960e01b8152600481018390526001600160a01b0390911690632ab0f52990602401602060405180830381865afa158015611b2f573d6000803e3d6000fd5b505050506040513d601f19601f82011682018060405250810190611b53919061389b565b15611b62575060079392505050565b600a54604051632c258a9f60e11b8152600481018390526001600160a01b039091169063584b153e90602401602060405180830381865afa158015611bab573d6000803e3d6000fd5b505050506040513d601f19601f82011682018060405250810190611bcf919061389b565b15611bde575060059392505050565b5060029392505050565b6000438210611c395760405162461bcd60e51b815260206004820181905260248201527f436865636b706f696e74733a20626c6f636b206e6f7420796574206d696e656460448201526064016109c2565b6000611c4483611559565b84549091506000611c5786848385612abe565b90508015611c8457611c6e866115356001846137a0565b54600160201b90046001600160e01b0316611c87565b60005b6001600160e01b03169695505050505050565b60045460408051918252602082018390527fc565b045403dc03c2eea82b81a0465edad9e2e7fc4d97e11421c209da93d7a93910160405180910390a1600455565b6000611ce56111bb565b611cf4336107cc6001436137a0565b1015611d5c5760405162461bcd60e51b815260206004820152603160248201527f476f7665726e6f723a2070726f706f73657220766f7465732062656c6f7720706044820152701c9bdc1bdcd85b081d1a1c995cda1bdb19607a1b60648201526084016109c2565b6000611d718686868680519060200120611304565b90508451865114611d945760405162461bcd60e51b81526004016109c2906138bd565b8351865114611db55760405162461bcd60e51b81526004016109c2906138bd565b6000865111611e065760405162461bcd60e51b815260206004820152601860248201527f476f7665726e6f723a20656d7074792070726f706f73616c000000000000000060448201526064016109c2565b600081815260016020908152604091829020825191820190925281546001600160401b03169081905215611e865760405162461bcd60e51b815260206004820152602160248201527f476f7665726e6f723a2070726f706f73616c20616c72656164792065786973746044820152607360f81b60648201526084016109c2565b6000611e98611e93610dd3565b612b1c565b611ea143612b1c565b611eab91906138fe565b90506000611eba611e93610882565b611ec490836138fe565b835467ffffffffffffffff19166001600160401b038416178455905060018301805467ffffffffffffffff19166001600160401b0383161790557f7d84a6263ae0d98d3329bd7b46bb4e8d6f98cd35a7adb45c274c8b7fd5ebd5e084338b8b8d516001600160401b03811115611f3c57611f3c612c81565b604051908082528060200260200182016040528015611f6f57816020015b6060815260200190600190039081611f5a5790505b508c88888e604051611f8999989796959493929190613925565b60405180910390a15091979650505050505050565b604051630748d63560e31b81526001600160a01b038481166004830152602482018490526000917f000000000000000000000000000000000000000000000000000000000000000090911690633a46b1a890604401602060405180830381865afa158015612010573d6000803e3d6000fd5b505050506040513d601f19601f8201168201806040525081019061106691906135ef565b600a54604080516001600160a01b03928316815291831660208301527f08f74ea46ef7894f65eabfb5e6e695de773a000b47c529ab559178069b226401910160405180910390a1600a80546001600160a01b0319166001600160a01b0392909216919091179055565b606083156120ac575081611069565b6110698383612b84565b600081116121165760405162461bcd60e51b815260206004820152602760248201527f476f7665726e6f7253657474696e67733a20766f74696e6720706572696f6420604482015266746f6f206c6f7760c81b60648201526084016109c2565b60055460408051918252602082018390527f7e3f7f0708a84de9203036abaa450dccc85ad5ff52f78c170f3edb55cf5e8828910160405180910390a1600555565b60065460408051918252602082018390527fccb45da8d5717e6c4544694297c4ba5cf151d455c9bb0ed4fc7a38411bc05461910160405180910390a1600655565b600060646121a583610ed2565b604051632394e7a360e21b8152600481018590527f00000000000000000000000000000000000000000000000000000000000000006001600160a01b031690638e539e8c90602401602060405180830381865afa15801561220a573d6000803e3d6000fd5b505050506040513d601f19601f8201168201806040525081019061222e91906135ef565b6122389190613a14565b61087c9190613a2b565b825460009081908015612388576000612260876115356001856137a0565b60408051808201909152905463ffffffff808216808452600160201b9092046001600160e01b0316602084015291925090871610156122e15760405162461bcd60e51b815260206004820152601760248201527f436865636b706f696e743a20696e76616c6964206b657900000000000000000060448201526064016109c2565b805163ffffffff8088169116036123295784612302886115356001866137a0565b80546001600160e01b0392909216600160201b0263ffffffff909216919091179055612378565b6040805180820190915263ffffffff80881682526001600160e01b0380881660208085019182528b54600181018d5560008d81529190912094519151909216600160201b029216919091179101555b6020015192508391506123dd9050565b50506040805180820190915263ffffffff80851682526001600160e01b0380851660208085019182528854600181018a5560008a815291822095519251909316600160201b0291909316179201919091559050815b935093915050565b60006001600160e01b0319821663bf26d89760e01b148061241657506001600160e01b031982166379dd796f60e01b145b8061243157506001600160e01b03198216630271189760e51b145b8061087c57506301ffc9a760e01b6001600160e01b031983161461087c565b6000306001600160a01b037f0000000000000000000000000000000000000000000000000000000000000000161480156124a957507f000000000000000000000000000000000000000000000000000000000000000046145b156124d357507f000000000000000000000000000000000000000000000000000000000000000090565b50604080517f00000000000000000000000000000000000000000000000000000000000000006020808301919091527f0000000000000000000000000000000000000000000000000000000000000000828401527f000000000000000000000000000000000000000000000000000000000000000060608301524660808301523060a0808401919091528351808403909101815260c0909201909252805191012090565b6000807f7fffffffffffffffffffffffffffffff5d576e7357a4501ddfe92f46681b20a08311156125ae5750600090506003612632565b6040805160008082526020820180845289905260ff881692820192909252606081018690526080810185905260019060a0016020604051602081039080840390855afa158015612602573d6000803e3d6000fd5b5050604051601f1901519150506001600160a01b03811661262b57600060019250925050612632565b9150600090505b94509492505050565b600081600481111561264f5761264f613124565b036126575750565b600181600481111561266b5761266b613124565b036126b85760405162461bcd60e51b815260206004820152601860248201527f45434453413a20696e76616c6964207369676e6174757265000000000000000060448201526064016109c2565b60028160048111156126cc576126cc613124565b036127195760405162461bcd60e51b815260206004820152601f60248201527f45434453413a20696e76616c6964207369676e6174757265206c656e6774680060448201526064016109c2565b600381600481111561272d5761272d613124565b03610a1a5760405162461bcd60e51b815260206004820152602260248201527f45434453413a20696e76616c6964207369676e6174757265202773272076616c604482015261756560f01b60648201526084016109c2565b60008581526007602090815260408083206001600160a01b0388168452600381019092529091205460ff161561280d5760405162461bcd60e51b815260206004820152602760248201527f476f7665726e6f72566f74696e6753696d706c653a20766f746520616c726561604482015266191e4818d85cdd60ca1b60648201526084016109c2565b6001600160a01b03851660009081526003820160205260409020805460ff1916600117905560ff8416612859578281600001600082825461284e919061378d565b90915550611a2c9050565b60001960ff851601612879578281600101600082825461284e919061378d565b60011960ff851601612899578281600201600082825461284e919061378d565b60405162461bcd60e51b815260206004820152603560248201527f476f7665726e6f72566f74696e6753696d706c653a20696e76616c69642076616044820152746c756520666f7220656e756d20566f74655479706560581b60648201526084016109c2565b8154600160801b90819004600f0b6000818152600180860160205260409091209390935583546001600160801b03908116939091011602179055565b600a5460405163e38335e560e01b81526001600160a01b039091169063e38335e59034906129769088908890889060009089906004016136d1565b6000604051808303818588803b15801561298f57600080fd5b505af11580156129a3573d6000803e3d6000fd5b50505050505050505050565b6000818152600160205260408120600281015460ff16156129d35750600792915050565b6002810154610100900460ff16156129ee5750600292915050565b60006129f984610d9c565b905080600003612a4b5760405162461bcd60e51b815260206004820152601d60248201527f476f7665726e6f723a20756e6b6e6f776e2070726f706f73616c20696400000060448201526064016109c2565b438110612a5c575060009392505050565b6000612a67856111c6565b9050438110612a7b57506001949350505050565b612a8485612bae565b8015612aa3575060008581526007602052604090208054600190910154115b15612ab357506004949350505050565b506003949350505050565b60005b81831015612b14576000612ad58484612be5565b60008781526020902090915063ffffffff86169082015463ffffffff161115612b0057809250612b0e565b612b0b81600161378d565b93505b50612ac1565b509392505050565b60006001600160401b038211156114e15760405162461bcd60e51b815260206004820152602660248201527f53616665436173743a2076616c756520646f65736e27742066697420696e203660448201526534206269747360d01b60648201526084016109c2565b815115612b945781518083602001fd5b8060405162461bcd60e51b81526004016109c29190612e43565b600081815260076020526040812060028101546001820154612bd0919061378d565b612bdc61083885610d9c565b11159392505050565b6000612bf46002848418613a2b565b6110699084841661378d565b600060208284031215612c1257600080fd5b81356001600160e01b03198116811461106957600080fd5b803560ff81168114612c3b57600080fd5b919050565b60008083601f840112612c5257600080fd5b5081356001600160401b03811115612c6957600080fd5b60208301915083602082850101111561151457600080fd5b634e487b7160e01b600052604160045260246000fd5b604051601f8201601f191681016001600160401b0381118282101715612cbf57612cbf612c81565b604052919050565b60006001600160401b03831115612ce057612ce0612c81565b612cf3601f8401601f1916602001612c97565b9050828152838383011115612d0757600080fd5b828260208301376000602084830101529392505050565b600082601f830112612d2f57600080fd5b61106983833560208501612cc7565b60008060008060008060008060e0898b031215612d5a57600080fd5b88359750612d6a60208a01612c2a565b965060408901356001600160401b0380821115612d8657600080fd5b612d928c838d01612c40565b909850965060608b0135915080821115612dab57600080fd5b50612db88b828c01612d1e565b945050612dc760808a01612c2a565b925060a0890135915060c089013590509295985092959890939650565b600060208284031215612df657600080fd5b5035919050565b6000815180845260005b81811015612e2357602081850181015186830182015201612e07565b506000602082860101526020601f19601f83011685010191505092915050565b6020815260006110696020830184612dfd565b6001600160a01b0381168114610a1a57600080fd5b60008060008060808587031215612e8157600080fd5b8435612e8c81612e56565b93506020850135612e9c81612e56565b92506040850135915060608501356001600160401b03811115612ebe57600080fd5b612eca87828801612d1e565b91505092959194509250565b60006001600160401b03821115612eef57612eef612c81565b5060051b60200190565b600082601f830112612f0a57600080fd5b81356020612f1f612f1a83612ed6565b612c97565b82815260059290921b84018101918181019086841115612f3e57600080fd5b8286015b84811015612f62578035612f5581612e56565b8352918301918301612f42565b509695505050505050565b600082601f830112612f7e57600080fd5b81356020612f8e612f1a83612ed6565b82815260059290921b84018101918181019086841115612fad57600080fd5b8286015b84811015612f625780358352918301918301612fb1565b600082601f830112612fd957600080fd5b81356020612fe9612f1a83612ed6565b82815260059290921b8401810191818101908684111561300857600080fd5b8286015b84811015612f625780356001600160401b0381111561302b5760008081fd5b6130398986838b0101612d1e565b84525091830191830161300c565b6000806000806080858703121561305d57600080fd5b84356001600160401b038082111561307457600080fd5b61308088838901612ef9565b9550602087013591508082111561309657600080fd5b6130a288838901612f6d565b945060408701359150808211156130b857600080fd5b506130c587828801612fc8565b949793965093946060013593505050565b600080600080600060a086880312156130ee57600080fd5b853594506130fe60208701612c2a565b935061310c60408701612c2a565b94979396509394606081013594506080013592915050565b634e487b7160e01b600052602160045260246000fd5b602081016008831061315c57634e487b7160e01b600052602160045260246000fd5b91905290565b6000806040838503121561317557600080fd5b82359150602083013561318781612e56565b809150509250929050565b600080604083850312156131a557600080fd5b823591506131b560208401612c2a565b90509250929050565b6000806000806000608086880312156131d657600080fd5b853594506131e660208701612c2a565b935060408601356001600160401b038082111561320257600080fd5b61320e89838a01612c40565b9095509350606088013591508082111561322757600080fd5b5061323488828901612d1e565b9150509295509295909350565b6000806000806060858703121561325757600080fd5b8435935061326760208601612c2a565b925060408501356001600160401b0381111561328257600080fd5b61328e87828801612c40565b95989497509550505050565b600080600080608085870312156132b057600080fd5b84356001600160401b03808211156132c757600080fd5b6132d388838901612ef9565b955060208701359150808211156132e957600080fd5b6132f588838901612f6d565b9450604087013591508082111561330b57600080fd5b61331788838901612fc8565b9350606087013591508082111561332d57600080fd5b508501601f8101871361333f57600080fd5b612eca87823560208401612cc7565b60008060006060848603121561336357600080fd5b833561336e81612e56565b92506020840135915060408401356001600160401b0381111561339057600080fd5b61339c86828701612d1e565b9150509250925092565b6000602082840312156133b857600080fd5b813561106981612e56565b600080600080600060a086880312156133db57600080fd5b85356133e681612e56565b945060208601356133f681612e56565b935060408601356001600160401b038082111561341257600080fd5b61341e89838a01612f6d565b9450606088013591508082111561343457600080fd5b61344089838a01612f6d565b9350608088013591508082111561322757600080fd5b6000806000806060858703121561346c57600080fd5b843561347781612e56565b93506020850135925060408501356001600160401b0381111561328257600080fd5b600080604083850312156134ac57600080fd5b82356134b781612e56565b946020939093013593505050565b600080600080600060a086880312156134dd57600080fd5b85356134e881612e56565b945060208601356134f881612e56565b9350604086013592506060860135915060808601356001600160401b0381111561352157600080fd5b61323488828901612d1e565b8183823760009101908152919050565b60208082526018908201527f476f7665726e6f723a206f6e6c79476f7665726e616e63650000000000000000604082015260600190565b600181811c9082168061358857607f821691505b6020821081036135a857634e487b7160e01b600052602260045260246000fd5b50919050565b60208082526021908201527f476f7665726e6f723a2070726f706f73616c206e6f74207375636365737366756040820152601b60fa1b606082015260800190565b60006020828403121561360157600080fd5b5051919050565b600081518084526020808501945080840160005b838110156136415781516001600160a01b03168752958201959082019060010161361c565b509495945050505050565b600081518084526020808501945080840160005b8381101561364157815187529582019590820190600101613660565b600081518084526020808501808196508360051b8101915082860160005b858110156136c45782840389526136b2848351612dfd565b9885019893509084019060010161369a565b5091979650505050505050565b60a0815260006136e460a0830188613608565b82810360208401526136f6818861364c565b9050828103604084015261370a818761367c565b60608401959095525050608001529392505050565b60c08152600061373260c0830189613608565b8281036020840152613744818961364c565b90508281036040840152613758818861367c565b60608401969096525050608081019290925260a0909101529392505050565b634e487b7160e01b600052601160045260246000fd5b8082018082111561087c5761087c613777565b8181038181111561087c5761087c613777565b634e487b7160e01b600052603260045260246000fd5b6080815260006137dc6080830187613608565b82810360208401526137ee818761364c565b90508281036040840152613802818661367c565b91505082606083015295945050505050565b84815260ff841660208201528260408201526080606082015260006110386080830184612dfd565b85815260ff8516602082015283604082015260a06060820152600061386460a0830185612dfd565b82810360808401526138768185612dfd565b98975050505050505050565b60006001820161389457613894613777565b5060010190565b6000602082840312156138ad57600080fd5b8151801515811461106957600080fd5b60208082526021908201527f476f7665726e6f723a20696e76616c69642070726f706f73616c206c656e67746040820152600d60fb1b606082015260800190565b6001600160401b0381811683821601908082111561391e5761391e613777565b5092915050565b60006101208b8352602060018060a01b038c168185015281604085015261394e8285018c613608565b91508382036060850152613962828b61364c565b915083820360808501528189518084528284019150828160051b850101838c0160005b838110156139b357601f198784030185526139a1838351612dfd565b94860194925090850190600101613985565b505086810360a08801526139c7818c61367c565b9450505050506139e260c08401876001600160401b03169052565b6001600160401b03851660e0840152828103610100840152613a048185612dfd565b9c9b505050505050505050505050565b808202811582820484141761087c5761087c613777565b600082613a4857634e487b7160e01b600052601260045260246000fd5b50049056fe476f7665726e6f723a2072656c617920726576657274656420776974686f7574206d657373616765a2646970667358221220af51f5ae76b4f4e65060ae885450f4e6479efe333912c7759b5f7dfc8a401a4064736f6c63430008110033",
  "linkReferences": {},
  "deployedLinkReferences": {}
}