{
  "_format": "hh-sol-artifact-1",
  "contractName": "Treasury",
  "sourceName": "contracts/Treasury.sol",
  "abi": [
    {
      "inputs": [],
      "stateMutability": "payable",
      "type": "constructor"
    },
    {
      "anonymous": false,
      "inputs": [
        {
          "indexed": false,
          "internalType": "address",
          "name": "_addr",
          "type": "address"
        },
        {
          "indexed": false,
          "internalType": "uint256",
          "name": "_value",
          "type": "uint256"
        }
      ],
      "name": "Log",
      "type": "event"
    },
    {
      "anonymous": false,
      "inputs": [
        {
          "indexed": true,
          "internalType": "address",
          "name": "previousOwner",
          "type": "address"
        },
        {
          "indexed": true,
          "internalType": "address",
          "name": "newOwner",
          "type": "address"
        }
      ],
      "name": "OwnershipTransferred",
      "type": "event"
    },
    {
      "stateMutability": "payable",
      "type": "fallback"
    },
    {
      "inputs": [],
      "name": "isReleased",
      "outputs": [
        {
          "internalType": "bool",
          "name": "",
          "type": "bool"
        }
      ],
      "stateMutability": "view",
      "type": "function"
    },
    {
      "inputs": [],
      "name": "owner",
      "outputs": [
        {
          "internalType": "address",
          "name": "",
          "type": "address"
        }
      ],
      "stateMutability": "view",
      "type": "function"
    },
    {
      "inputs": [],
      "name": "payee",
      "outputs": [
        {
          "internalType": "address",
          "name": "",
          "type": "address"
        }
      ],
      "stateMutability": "view",
      "type": "function"
    },
    {
      "inputs": [
        {
          "internalType": "address",
          "name": "_payee",
          "type": "address"
        },
        {
          "internalType": "uint256",
          "name": "fundsToTransfer",
          "type": "uint256"
        }
      ],
      "name": "releaseFunds",
      "outputs": [],
      "stateMutability": "nonpayable",
      "type": "function"
    },
    {
      "inputs": [],
      "name": "renounceOwnership",
      "outputs": [],
      "stateMutability": "nonpayable",
      "type": "function"
    },
    {
      "inputs": [],
      "name": "totalFunds",
      "outputs": [
        {
          "internalType": "uint256",
          "name": "",
          "type": "uint256"
        }
      ],
      "stateMutability": "view",
      "type": "function"
    },
    {
      "inputs": [
        {
          "internalType": "address",
          "name": "newOwner",
          "type": "address"
        }
      ],
      "name": "transferOwnership",
      "outputs": [],
      "stateMutability": "nonpayable",
      "type": "function"
    },
    {
      "stateMutability": "payable",
      "type": "receive"
    }
  ],
  "bytecode": "0x608060405261000d33610023565b346001556002805460ff60a01b19169055610073565b600080546001600160a01b038381166001600160a01b0319831681178455604051919092169283917f8be0079c531659141344cd1fd0a4f28419497f9722a3daafe3b4186f6b6457e09190a35050565b6104bd806100826000396000f3fe6080604052600436106100745760003560e01c8063ae90b2131161004e578063ae90b2131461014e578063d6e982e51461016e578063f2fde38b1461018e578063fa2a8997146101ae576100ca565b8063715018a6146100dc5780638da5cb5b146100f3578063968ed6001461012a576100ca565b366100ca57346001600082825461008b91906103f3565b9091555050604080513381523460208201527ff950957d2407bed19dc99b718b46b4ce6090c05589006dfb86fd22c34865b23e910160405180910390a1005b346001600082825461008b91906103f3565b3480156100e857600080fd5b506100f16101df565b005b3480156100ff57600080fd5b506000546001600160a01b03165b6040516001600160a01b0390911681526020015b60405180910390f35b34801561013657600080fd5b5061014060015481565b604051908152602001610121565b34801561015a57600080fd5b5060025461010d906001600160a01b031681565b34801561017a57600080fd5b506100f1610189366004610428565b6101f3565b34801561019a57600080fd5b506100f16101a9366004610452565b6102ba565b3480156101ba57600080fd5b506002546101cf90600160a01b900460ff1681565b6040519015158152602001610121565b6101e7610333565b6101f1600061038d565b565b6101fb610333565b6001548111156102525760405162461bcd60e51b815260206004820152601e60248201527f496e73756666696369656e742046756e647320696e207472656173757279000060448201526064015b60405180910390fd5b6002805460ff60a01b1916600160a01b1790556001805482919060009061027a908490610474565b90915550506040516001600160a01b0383169082156108fc029083906000818181858888f193505050501580156102b5573d6000803e3d6000fd5b505050565b6102c2610333565b6001600160a01b0381166103275760405162461bcd60e51b815260206004820152602660248201527f4f776e61626c653a206e6577206f776e657220697320746865207a65726f206160448201526564647265737360d01b6064820152608401610249565b6103308161038d565b50565b6000546001600160a01b031633146101f15760405162461bcd60e51b815260206004820181905260248201527f4f776e61626c653a2063616c6c6572206973206e6f7420746865206f776e65726044820152606401610249565b600080546001600160a01b038381166001600160a01b0319831681178455604051919092169283917f8be0079c531659141344cd1fd0a4f28419497f9722a3daafe3b4186f6b6457e09190a35050565b634e487b7160e01b600052601160045260246000fd5b80820180821115610406576104066103dd565b92915050565b80356001600160a01b038116811461042357600080fd5b919050565b6000806040838503121561043b57600080fd5b6104448361040c565b946020939093013593505050565b60006020828403121561046457600080fd5b61046d8261040c565b9392505050565b81810381811115610406576104066103dd56fea2646970667358221220ae975e4730dd5d5f59c087c0dc2609960fd6cf15781f4cd48076f63446e7b48664736f6c63430008110033",
  "linkReferences": {},
  "deployedLinkReferences": {}
}